:100000000C942A000C9434000C9434000C943400AA
:100010000C9434000C9434000C9434000C94340090
:100020000C9434000C9434000C9434000C94340080
:100030000C9434000C9434000C9434000C94340070
:100040000C9434000C9434000C9434000C94340060
:100050000C94340011241FBECFE5D8E0DEBFCDBF25
:100060000E9445000C9465000C94000090BD89B975
:1000700088E18AB986E880BD08955D9BFECF8CB982
:1000800008955F9BFECF8CB1089587E690E00E94B3
:1000900036000E944100C82F0E9441008D30C9F7F0
:1000A00080ED8C0F8A30A8F78C2F90E08F978A30E4
:1000B000910521F480E30E943D00EBCF805D0E941A
:0E00C0003D008DE00E943D00E4CFF894FFCF9C
:00000001FF
